:020000040800F2
:10000000A8360020E1010008C11F00083D1B0008C0
:10001000A51F0008CD0A0008795E00080000000056
:10002000000000000000000000000000EB310008AC
:10003000D5120008000000006F02000821540008DB
:10004000FB010008FB010008FB010008FB010008A0
:10005000FB010008FB010008FB010008FB01000890
:10006000FB010008FB010008FB010008FB01000880
:10007000FB010008FB010008FB010008FB01000870
:10008000FB010008FB010008FB010008FB01000860
:10009000FB010008FB010008FB010008FB01000850
:1000A000FB010008FB010008FB010008FB01000840
:1000B00035550008FB010008FB010008FB010008A2
:1000C000FB010008FB010008FB010008FB01000820
:1000D000FB010008A9590008FB010008F95A0008B3
:1000E000FB010008FB010008FB010008FB01000800
:1000F000FB010008FB010008FB010008FB010008F0
:10010000FB010008FB010008FB010008FB010008DF
:10011000FB010008FB010008FB010008FB010008CF
:10012000FB010008FB010008FB010008FB010008BF
:1001300000F002F800F045F80AA090E8000C8244B4
:100140008344AAF10107DA4501D100F03AF8AFF291
:10015000090EBAE80F0013F0010F18BFFB1A43F0A5
:10016000010318474C8D00006C8D0000103A24BF2D
:1001700078C878C1FAD8520724BF30C830C144BF0C
:1001800004680C607047000000230024002500264E
:10019000103A28BF78C1FBD8520728BF30C148BFEA
:1001A0000B607047642900F0CD80782900F006814B
:1001B000732900F0D582002070471FB51FBD10B510
:1001C00010BD00F0EFFA1146FFF7F7FF07F03AFC19
:1001D00000F00DFB03B4FFF7F2FF03BC06F026F8B6
:1001E0000948804709480047FEE7FEE7FEE7FEE7CB
:1001F000FEE7FEE7FEE7FEE7FEE7FEE70448054907
:10020000054A064B70470000E5540008310100081C
:10021000A8300020A8360020A8320020A8320020F4
:10022000EFF3108072B6704780F310887047204C4F
:10023000204D25604FF0000484F309881E4C4FF0D8
:10024000010525701D4C4FF08055256062B6FEE714
:1002500030B41A4C4FF08055256030BC704730B434
:10026000164C4FF08055256030BC704700BF72B609
:10027000EFF3098028B1203880E8F00F10490968B1
:10028000086000B50F4880475DF804EB0E480F4941
:100290000A7802700A480E490A680260106890E8FD
:1002A000F00F203080F309884EF0040E62B67047DC
:1002B00020ED00E00000FFFFAF00002004ED00E0B3
:1002C000C8000020F1260008AC000020AD0000208E
:1002D000D0000020704700000FB4044910B503AAF5
:1002E000029800F041FA10BC5DF814FB9000002069
:1002F00070B50C460546012A05D02878800600D541
:10030000EA69002302E0012305E05B1C934202D26C
:10031000E05C0028F9D1A869E618C01AA861286A2B
:10032000184428622846AFF3008004E0D5E9012193
:1003300014F8010B9047B442F8D32846AFF300807D
:1003400070BD00002DE9F0410646002410687529B3
:10035000314616A510D0AFF30080002802DA4042E3
:1003600013A507E031688A0701D512A502E0490705
:1003700004D511A5012401E0AFF3008000210A2279
:1003800006F1240709E0B0FBF2FCB0FBF2F302FB3C
:100390001C00303078541846491C0028F3D12346FD
:1003A0002A463046BDE8F04100F057B90000000091
:1003B0002D0000002B0000002000000070B5044656
:1003C0000D4621461068AFF300802188090502D54B
:1003D0000F4A7A4402E00E4A7A440E32002104F1B8
:1003E000240305E000F00F060009965D5E54491CE9
:1003F0000028F7D120780023000704D5702D02D003
:1004000009B1022311322046BDE8704000F025B941
:100410005E8A00002DE9F05F894604464FF0000A2D
:10042000DFF824B1FB44C0F820A02046E1688847EB
:1004300000287DD0252806D0D4E901219047206AE4
:10044000401C2062F1E700255F462046E1688847AE
:100450002028064607DB312E05D2B81910F8200CEB
:1004600008B10543F1E7A80701D525F00405C4F854
:100470001CA00027C4F818A02A2E09D0304605F089
:10048000CEFE38B304EB8708303EC8F8186019E098
:1004900059F8041B204604EB87029161E168884704
:1004A000012F064618D1E069002820DA25F0200542
:1004B0001DE0D8F8180000EB800006EB4000303853
:1004C000C8F818002046E1688847064605F0A7FEF0
:1004D0000028EED1012F0AD02E2E08D12046E16847
:1004E00088477F1C0646022F45F02005C4DBA06923
:1004F000002803DA404245F00105A061E80701D079
:1005000025F01005A6B1A6F14100192802D8203621
:1005100045F400654A463146204625604D46FFF7C2
:1005200041FE60B1012807D0ED1D25F0070000E075
:1005300007E000F1080978E705F1040975E730469E
:100540007AE7206ABDE8F09F348A000010B5431CAA
:1005500002E010F8011B71B18107FAD14FF00132AE
:1005600002C88C1A8C4314EAC211F9D0C01A0A06C8
:1005700003D0C01E10BDC01A10BD0A0401D0801ED9
:1005800010BD0902FCD0401E10BD10B5203AC0F0CD
:100590000B80B1E81850203AA0E81850B1E8185084
:1005A000A0E81850BFF4F5AF5FEA027C24BFB1E8C1
:1005B0001850A0E8185044BF18C918C0BDE8104032
:1005C0005FEA827C24BF51F8043B40F8043B08BF3B
:1005D0007047D20728BF31F8023B48BF11F8012B02
:1005E00028BF20F8023B48BF00F8012B70474FF0AE
:1005F000000200B5134694469646203922BFA0E873
:100600000C50A0E80C50B1F12001BFF4F7AF09077E
:1006100028BFA0E80C5048BF0CC05DF804EB89006F
:1006200028BF40F8042B08BF704748BF20F8022BB2
:1006300011F0804F18BF00F8012B704770477047CA
:100640007047704710B500F0A1F8006810BD10B5F4
:10065000044600F09BF8046010BD2DE9F0470D46FC
:1006600099469246044600F124080168880604D59C
:10067000E06921F01001216000E00120A84201DDC5
:10068000471B00E00027A1697A1902EB0900081A4C
:10069000A0612078C00602D42046AFF30080002677
:1006A00008E0D4E901211AF806009047206A401CAE
:1006B000761C20624E45F4DB2078C0060AD5204621
:1006C000AFF3008006E0D4E9012130209047206A92
:1006D000401C2062381EA7F10107F4DC07E0D4E9D2
:1006E000012118F805009047206A401C2062281E4E
:1006F000A5F10105F3DC2046AFF300802078000669
:1007000002D50220BDE8F0870120FBE701694A1C01
:1007100002610878704700B58FB0CDE90131002142
:10072000059105497944CDE9031011466846FFF764
:1007300071FE0FB000BD0000E5FFFFFF10B543697B
:1007400013B1AFF3008001E0FFF7D2FD012010BD2F
:10075000127800F124010A7000224A700122EDE7AC
:1007600011684FF0FF32E9E7074B70B50D467B4447
:10077000FFF7D1FF0446284600F00CF810B14FF007
:10078000FF3070BD204670BDF3690000004870471F
:1007900048300020007B00F0800070470048704720
:1007A000483000207546FFF7F9FFAE460500694660
:1007B000534620F00700854618B020B5FFF71EFD10
:1007C000BDE820404FF000064FF000074FF0000852
:1007D0004FF0000B21F00701AC46ACE8C009ACE8D3
:1007E000C009ACE8C009ACE8C0098D46704710B537
:1007F0000446AFF300802046BDE81040FFF7EABC96
:100800000029816802D041F0010101E021F00101DD
:10081000816070470029816802D041F4807101E055
:1008200021F4807181607047014600208968490782
:1008300000D501207047014600208968090700D5CE
:100840000120704710B542680E4B0C791A400B68B6
:1008500042EA04221343436083680B4A1340D1E900
:10086000024222434C7943EA44031A438260C26A3B
:10087000097C22F47002491EC9B242EA0151C162E8
:1008800010BD0000FFFEF0FFFDF7F1FF70B507247B
:1008900009290AD9C568A1F10A0606EB4606B44043
:1008A000A543B3401D43C56007E0056901EB410660
:1008B000B440A543B3401D4305611F23072A09D255
:1008C000446B521E02EB820293409C4391400C43C6
:1008D000446370BD0D2A09D2046BD21F02EB820261
:1008E00093409C4391400C43046370BDC46A0D3A2D
:1008F00002EB820293409C4391400C43C46270BD62
:10090000816841F00801816070470029816802D048
:1009100041F4A00101E021F4A001816070478168E9
:1009200041F004018160704710B501F0BFFA04F096
:1009300087FD01F009F905F0D1FA01F07DFA772180
:1009400042F20F7004F0B8FE092140F2AF4004F00B
:100950006FFE472140F2E73004F0F2FE4FF4617180
:100960000D4804F0CFFF41F61F414FF4167004F01C
:1009700031FE4FF4E134204605F016F94FF41650DD
:1009800005F048F8204607F003F900F007F8BDE845
:10099000104005F073BA00000004004070B592B03A
:1009A00001214FF4067002F0E3FA0F20ADF8400089
:1009B00000248DF8434010A93F4800F0D1FD0125E7
:1009C000ADF840508DF8434010A93C4800F0C8FDF8
:1009D0000121084602F0A8FA394E304600F058FBD3
:1009E0003220CDE9024037480190A80207900A94CE
:1009F00080200590202008903348009080150690B4
:100A00000494400109906946304600F0B3FB01218F
:100A1000304600F031FB8DF831504FF46020CDE9C5
:100A20000D040B94284C05208DF83C004C3C8DF8AF
:100A300030500BA92046FFF705FFE80302F06AFAE1
:100A40000523012208212046FFF720FF052302226B
:100A50000A212046FFF71AFF052303220B21204617
:100A6000FFF714FF052304220C212046FFF70EFF99
:100A700005231A460D212046FFF708FF01212046D5
:100A8000FFF7BEFE01212046FFF7C4FE2046FFF718
:100A900037FF2046FFF7CFFE0028FAD12046FFF7A8
:100AA0003EFF2046FFF7C0FE0028FAD10121204674
:100AB000FFF72BFF12B070BD00100140000C014089
:100AC00008000240DC1F00204C240140FEE700002B
:100AD00010B5084C012004F82F0F00F00DF800F0BD
:100AE0008FF800F02DF900F0C1F900F05BFA00205A
:100AF000207010BD440F00202DE9FC5F0026344615
:100B000031A0FFF7E9FB354D0020C5F8A801C5F875
:100B1000AC013349C1F888014FF4617005F5D47513
:100B200002F0F2F90127AF602E48C0F88C71C0F8CE
:100B30009071C0F894712C4D4FF4C46940F287282D
:100B400040F26D2A4FF4C66B761CF6B20A2E18D905
:100B50000026641CA878E4B298B9072C11D20520AD
:100B600000EB4401484600F04FFF04EBC40149008C
:100B70003D31CDE90018534610220121584600F0BE
:100B800099FE286A07F03EFE3C2819DC85F82C7097
:100B9000A87880B995F82C0000EB800081004846C9
:100BA00000F032FFC421CDE9001853461022012184
:100BB000584600F07FFEBDE8FC5F0CA0FFF78CBB41
:100BC000322006F021FABFE7436C6561723120C51F
:100BD000C5C6F873746172740D0A000000002242E9
:100BE0000080224200802142440F0020436C656156
:100BF000723120C5C5C6F8BDE1CAF80D0A00000073
:100C00002DE9FC47002635463DA0FFF765FB424C29
:100C10000020C4F8AC014149C1F88801404FC7F831
:100C20009001C7F8940104F5D47407F5C67702F073
:100C30006BF901202060A06038600146394804F05B
:100C4000C4FD42F21070002300905022194618464D
:100C500006F012FF80B202F051F9334C4FF4C46831
:100C600040F2872740F26D294FF4C66A761CF6B22F
:100C70000A2E1CD96D1C0026EDB20A2D17D2A078C1
:100C8000A8B994F82C0000EB8000800000EB45012F
:100C9000404600F0B9FE05EBC5004000C430CDE988
:100CA00000074B4610220121504600F003FE206A47
:100CB00007F0A8FD64281FDB022084F82C00A07830
:100CC000A8B994F82C004FF0FF3100EB800001EB45
:100CD000800081B2404600F097FE4FF4BC70CDE931
:100CE00000074B4610220121504600F0E3FDBDE80D
:100CF000FC470EA0FFF7F0BA322006F085F9B5E701
:100D0000436C6561723220CCEEB3E4B3F4D1F520CC
:100D100073746172740D0A00000022420080224246
:100D20000080214200080040440F0020436C6561B0
:100D3000723220B4EFB5BDB3A3D1B9200D0A0000C3
:100D40002DE9FC4700252C4638A0FFF7C5FA3D4E9B
:100D50000020C6F8AC013C49C1F8880106F5D476FC
:100D600002F0D2F801213160B1603848C0F88C112E
:100D7000C0F89011C0F89411354804F026FD42F2F5
:100D800010700023009050221946184606F074FE99
:100D900080B202F0B3F82F4E4FF4C46840F28727B8
:100DA00040F26D294FF4C66A6D1CEDB20A2D1BD9B5
:100DB0000025A41CB078E4B2B0B996F82C0000EB82
:100DC0008000800000EB4401404600F01DFE04EB73
:100DD000C400400000F5BC70CDE900074B4610226E
:100DE0000121504600F066FD0A2C03D0322006F0A7
:100DF0000BF9D9E7032086F82C00B07888B996F86B
:100E00002C0000EB80008100404600F0FDFD4FF417
:100E10000B70CDE900074B4610220121504600F02F
:100E200049FDBDE8FC470CA0FFF756BA436C65616D
:100E3000723320313053B3F4D1F5C9B1B6BE0D0AC7
:100E40000000000000002242008022420080214277
:100E500000080040440F0020436C6561723320C9D4
:100E6000B1B6BEBDE1CAF80D0A0000002DE9FC478D
:100E7000002635463CA0FFF72FFA404C0020C4F86E
:100E8000A801C4F8AC013E49C1F888014FF4617073
:100E900004F5D47402F038F80121A1603948C0F893
:100EA0008C11C0F89011C0F89411374804F08DFCF3
:100EB00042F2107000230090502219461E2006F0C6
:100EC000DBFD80B202F01AF8304C4FF4C46840F2F7
:100ED000872740F26D294FF4C66A761CF6B20A2EB7
:100EE0001DD96D1C0026EDB20A2D18D2A078B0B91C
:100EF00094F82C0000EB8000800000EB4501404698
:100F000000F082FD05EBC500400000F50B70CDE957
:100F100000074B4610220121504600F0CBFC206A0E
:100F200007F070FC32281BDC042084F82C00A07829
:100F300088B994F82C0000EB80008100404600F056
:100F400063FD4FF43870CDE900074B4610220121B4
:100F5000504600F0AFFCBDE8FC470DA0FFF7BCB960
:100F6000322006F051F8B8E7436C6561723420C551
:100F7000C5B3F6B9DCC4DAC6F80D0A000000224297
:100F8000008022420080214200080040440F0020DF
:100F9000436C6561723420B4EFB5BDD5E6BFD50DA5
:100FA0000A0000001CB524A0FFF796F9002001F00C
:100FB000ABFF27480121C0F8A811C0F8AC11C0F858
:100FC000B0112448C0F888112348C0F88C11C0F82B
:100FD0009011C0F894110021204804F0F6FB002085
:100FE00001F08CFF1E4C052084F82C004FF4FA70A1
:100FF00006F00AF8A078D0B994F82C004FF0FF3131
:1010000000EB800001EB800081B24FF4C46000F07F
:10101000FBFC40F287214FF46570CDE9000140F2FE
:101020006D23102201214FF4C66000F043FCBDE89F
:101030001C400CA0FFF750B9436C6561723520B9B4
:10104000D8B1D5B3F4D1F52073746172740D0A0070
:10105000000022420080224200802142000800401D
:10106000440F0020436C6561723520C7E5BDE0BDCB
:10107000E1CAF80D0A0000000029016802D041F021
:10108000010102E04FF6FE7211400160704700005E
:1010900001684FF6FE72114001600021016041605D
:1010A0008160C1603149314A0839904203D14868B2
:1010B00040F00F0006E02D4A1432904204D14868F7
:1010C00040F0F00048607047284A2832904203D12F
:1010D000486840F47060F5E7244A3C32904203D1FE
:1010E000486840F47040EDE7204A5032904203D106
:1010F000486840F47020E5E71C4A6432904203D10E
:10110000486840F47000DDE7184A7832904203D115
:10111000486840F07060D5E7154A111F904203D12E
:10112000086840F00F0006E0114A1432904204D1E2
:10113000086840F0F000086070470D4A283290427D
:1011400003D1086840F47060F5E7094A3C329042E8
:1011500003D1086840F47040EDE7054A50329042F0
:10116000EAD1086840F47020E5E70000080002407A
:101170000804024030B5036847F6F07293430C6AE6
:101180008A682243D1E904452C4322438C692243D7
:10119000CC6922434C6A22438C6A22431A43026080
:1011A000CA6842600A6882604968C16030BD000058
:1011B0002DE9FC5F464E0446307884423DD03146EE
:1011C000002009784FF48A654FF454774FF40C7A75
:1011D00040F269184FF4EC7940F21B1B05EB011C3F
:1011E000062C29D2DFE804F003162B3B4E61009059
:1011F0000190002360461A46032100F05BFB40F299
:10120000011140F2D510CDE90001A823B22203213B
:1012100028460FE000900190002360461A46032103
:1012200000F048FBFA20CDE90070AC2352460321C0
:101230004FF48C6000F03EFB3470BDE8FC9F0090E2
:101240000190002360461A46032100F033FBCDE9EC
:101250000098B2225B4603214FF48E60EAE70090CB
:101260000190002360461A46032100F023FB40F260
:101270007630CDE900085B4640F22F2203214FF47F
:101280009060D7E700900190002360461A46032142
:1012900000F010FB40F2D311CDE90019B2224FF457
:1012A000C27303214FF49260C4E7009001900023C1
:1012B00060461A46032100F0FDFA4FF4EB70CDE9C9
:1012C000007040F28713524603214FF49460B1E757
:1012D00020000020704700007FB5144C0129089DB4
:1012E000217816464FF0640201FB02F10CD040F267
:1012F00083120DF1040C643100928CE82A002378EB
:1013000064214B4305220CE040F213320DF1040C32
:10131000643100928CE82A00237864214B4340F228
:101320009512314600F06DFA7FBD0000440F002099
:101330007FB5154C0129217813D06E25694340F201
:101340008F1501AE8D31009586E80E00217801EBF6
:10135000C102C2EB81112E2202EB410325224F2153
:101360000FE06D25694340F2233501AE8F310095C2
:1013700086E80E0023786D214B4340F2B9124F21CD
:10138000303300F03EFA7FBD440F002070B51446A4
:101390000E46054600F092FC18B10228FAD1012051
:1013A00070BDA02000F018FC68B1280A00F014FC01
:1013B000E8B200F011FC00BF00F080FC28B1022868
:1013C000FAD1042070BD022070BDA12000F004FC01
:1013D00060B9052070BD00BF00F0D4FB06F8010B1A
:1013E00014B100F03BFC01E000F052FC641EA4B21A
:1013F000F2D200F095FCC720401E80B2FCD2002043
:1014000070BD00002DE9FF5F00F00F0400F4FE60E6
:1014100015460E46C4F110088246E9464CF24F3B91
:1014200051E010226946FFF7B1FFA84516D24846A1
:10143000102C05D216F8011B0155641CE4B2F7E725
:10144000A5EB080085B200244FF010080BE000BFA8
:1014500016F8010B0855641CE4B200E049466D1E05
:10146000ADB2F5D2002500F029FC38B10228FAD13E
:1014700000F056FC012004B0BDE8F09FA02000F071
:10148000ABFB20B357464FEA1A2000F0A5FBF8B299
:1014900000F0A2FB5FF0000719F8070000F09CFBCA
:1014A000C8B17F1CFFB2102FF6D300F039FC5946AB
:1014B0005846401E80B2FCD2491E89B2FCD20AF1C5
:1014C000100080B28246002DABD10020D3E700F09F
:1014D00027FC0220CFE700F023FC0420CBE700002C
:1014E00010B501221C490820FFF750FF322005F0FB
:1014F0008BFD194C2078072819D900202070012273
:1015000021460820FFF77EFF322005F07DFD0120F7
:1015100060700246611C1020FFF774FF322005F056
:1015200073FD12220D491C20FFF76CFF0CE0012215
:10153000611C1020FFF72AFF322005F065FD122202
:1015400006491C20FFF722FF322005F05DFDBDE8B3
:101550001040024800F0EABC440F002000000020C8
:10156000F0B5CA78002502F00F03D20601D58A78BB
:1015700013430A784FF00F0E12F0FF0F4FF00102E5
:101580001CD004680F8802FA05F63740B74211D123
:101590004FEA850C0EFA0CF724EA070703FA0CF45D
:1015A0003C43CF78282F02D0482F02D002E046617A
:1015B00000E006616D1C082DE4D304600C88FF2C4C
:1015C0001ED944685FF0000606F1080702FA07F525
:1015D0000F882F40AF420FD14FEA860C0EFA0CF75E
:1015E000BC4303FA0CF73C43CF78282F00D1456168
:1015F000CF78482F00D10561761C082EE4D34460D3
:10160000F0BD0000F0B5144C002801DAE36900E0F9
:101610006368420D120185B2C0F301579540C0F3D3
:101620000346032F05D0C2020AD50322B2409343DA
:1016300007E023F07062636823F07063636002E088
:10164000AB4343F0706201B12A43002801DAE26142
:10165000F0BD6260F0BD00000000014002460020C5
:1016600092680A4200D001207047416170470161D1
:10167000704700002DE9F0410B4D00244FF6FF7636
:10168000698801806888B0420BD0084F08A0395D96
:10169000FEF722FE641CE4B20F2CF7D305A0FEF780
:1016A0001BFE6E80BDE8F08182000020AA0F0020A2
:1016B000257820000D0A000010B50021084B0A46CD
:1016C00001EB810403EB440434F81040491CC9B217
:1016D00022440A29F4D30A20B2FBF0F080B210BDF4
:1016E000DC1F002010B50C4906F0CAFF06F02EFFE3
:1016F00005F0FAFF06F09CFA084906F0C1FF084918
:1017000006F050FF01464FF07E5006F0B9FFBDE8ED
:101710001040044907F010BA00401C4600B056457E
:101720000FCF5B3B3393884338B50020ADF8000002
:10173000044601210F2000F010F9C82000F0DAFF64
:101740006846FFF797FFBDF800000F2805D0641C1E
:10175000E4B2052CEDD9002038BD012038BD10B50C
:1017600090B0044640216846FEF741FF5A208DF8AC
:101770000000A5218DF8011007218DF802108221AB
:101780008DF8031000218DF8041084218DF80510C8
:101790008DF8060001208DF80700200A8DF808005A
:1017A0008DF809400A21684604F058FA10B010BDBF
:1017B00010B588B0044620216846FEF718FF5A206D
:1017C0008DF80000A5208DF8010005208DF802009D
:1017D000002182208DF804108DF805008DF803009B
:1017E0008DF806408DF807400821684600F0D8F8CB
:1017F00008B010BD01B502226946032000F043F98C
:1018000008BD2DE9F04F87B00E46DDE9108ADDE90D
:10181000129B07461C4615461C216846FEF7E7FE4C
:101820005A208DF80000A5208DF8010015208DF8B4
:10183000020082208DF80300380A8DF80400002091
:101840008DF805708DF806008DF8080001208DF8E0
:101850000900300A8DF80A00280A8DF80C008DF86E
:101860000D50200A8DF80E004FEA18208DF8100058
:101870008DF811804FEA1A208DF812004FEA1920D6
:101880008DF814008DF815904FEA1B2006218DF875
:1018900016008DF807108DF80B608DF80F408DF84D
:1018A00013A08DF817B01821684600F079F807B03A
:1018B000BDE8F08F2DE9F04387B00E46DDE90E98C4
:1018C00007461C4615461C216846FEF790FE5A2026
:1018D0008DF80000A5208DF8010015208DF802007C
:1018E00082208DF80300380A8DF8040000208DF85E
:1018F00005708DF806008DF8080001208DF80900AC
:10190000300A8DF80A00280A06218DF807108DF894
:101910000C00210A4FEA19228DF814008DF81020CE
:101920008DF80D508DF815508DF80E108DF8119022
:101930004FEA18228DF816108DF812208DF80B60E2
:101940008DF80F408DF813808DF8174018216846E8
:1019500000F026F807B0BDE8F08330B591B00D4631
:10196000044640216846FEF742FE802D16D85A20D4
:101970008DF80000A5208DF8010004208DF80200EC
:1019800083208DF80300200A8DF804008DF80540AF
:101990008DF806500721684600F002F811B030BDFE
:1019A00004F05CB9F0B587B00F4605461E461446F4
:1019B00018216846FEF71BFE22466946384600F0AD
:1019C000C5F932466946284600F024F807B0F0BD54
:1019D000F0B587B00F4605461E46144618216846E6
:1019E000FEF705FE22466946384606F04FF83246B5
:1019F0006946284600F00EF807B0F0BD13B5022284
:101A000001A900F06CF81CBD13B5022201A900F079
:101A100066F81CBDF0B5074699B014460D46084659
:101A2000FEF794FDC6B264216846FEF7E0FD5A2138
:101A30008DF80010A5218DF80110E11C8DF8021021
:101A400082218DF80310390A8DF8041000208DF8DA
:101A5000057020210DF106030AE0A64204D215F814
:101A6000012B03F8012B01E003F8011B401CC0B25D
:101A7000A042F2D39DF80200C01CC1B26846FFF735
:101A80008FFF19B0F0BD70B588B00D4606461446FC
:101A900020216846FEF7ABFD5A208DF80000A520F6
:101AA0008DF80100A11C8DF8021080208DF8030034
:101AB0008DF804600020694608E02A88130A0A1895
:101AC000801C537115F8023B9371C0B2A042F4D34D
:101AD000641DE1B26846FFF763FF08B070BD70B5E2
:101AE0008AB00D460646144628216846FEF77FFD5B
:101AF0005A208DF80000A5208DF80100E01C8DF81B
:101B0000020082208DF80300300A8DF804008DF861
:101B100005600020694608E02A88130A0A18801C1C
:101B2000937115F8023BD371C0B2A042F4D3A41D47
:101B3000E1B26846FFF734FF0AB070BDFEE78020CF
:101B4000401E80B2FCD2704738B50121082001F058
:101B50000FFAC020ADF8000014208DF80300032018
:101B6000074C8DF8020069462046FFF7F9FC40213A
:101B70002046FFF77CFD80212046FFF778FD38BD29
:101B8000000C014070B5134E80213046FFF76FFD09
:101B900040213046FFF769FD0024254640213046AC
:101BA000FFF765FDFFF7CBFF6006040E802130468E
:101BB000FFF754FD08B144F0010440213046FFF71F
:101BC00054FDFFF7BCFF6D1CEDB2082DE6D3204697
:101BD00070BD0000000C014070B51F4E0546082482
:101BE00040213046FFF741FD17E028064FF0800105
:101BF000304602D5FFF73BFD01E0FFF736FD4021FF
:101C00003046FFF734FDFFF79AFF40213046FFF7DB
:101C10002CFD6806050EFFF792FF641EE4B2E4D2C5
:101C200080213046FFF723FD40213046FFF71FFD9E
:101C3000FFF785FF80213046FFF710FD00284FF0A9
:101C40004001304603D0FFF710FD002070BDFFF7C4
:101C50000CFD012070BD0000000C014010B50B4CC4
:101C600080212046FFF701FD40212046FFF7FFFCC1
:101C7000FFF765FF40212046FFF7F7FCFFF75FFF06
:101C80002046BDE810408021FFF7F1BC000C014068
:101C900010B5094C80212046FFF7E9FC4021204681
:101CA000FFF7E5FCFFF74BFF40212046FFF7DDFC87
:101CB000BDE81040FFF743BF000C014010B5174CC2
:101CC00080212046FFF7D3FC40212046FFF7CFFCC0
:101CD000FFF735FF80212046FFF7C0FCD8B18021F7
:101CE0002046FFF7C2FCFFF72AFF40212046FFF7FE
:101CF000BCFCFFF724FF80212046FFF7AFFC002843
:101D000008D080212046FFF7B2FC40212046FFF793
:101D1000AEFC022010BD012010BD0000000C0140EF
:101D200010B5094C80212046FFF79FFC402120463A
:101D3000FFF79DFCFFF703FF80212046FFF797FC8C
:101D4000BDE81040FFF7FBBE000C01402DE9F04359
:101D500001244542002801DD034600E02B4603DA5A
:101D60004FF02D0601F8016B4FF030064FF02E0CAE
:101D70004FF00A07012A06D04FF06409022A08D062
:101D8000032A17D02FE093FBF7F8B8F1000F0ED01D
:101D900029E093FBF9F8B8F1000F24D193FBF7F891
:101DA00001F8016BB8F1000F1DD101F801CB01F86A
:101DB000016B18E04FF47A7893FBF8F8B8F1000F54
:101DC00011D193FBF9F801F8016BB8F1000F0AD1BA
:101DD00001F801CB01F8016BD5E700BF93FBF7F3E6
:101DE00004EB840464000A2BF8DA00281DDC284682
:101DF0001BE0012C04D00A2C05D0642C06D009E08D
:101E0000012A05D006E0022A02D003E0032A01D10C
:101E100001F801CB90FBF4F3303301F8013B90FB68
:101E2000F4F304FB130094FBF7F4002CE1DC002036
:101E30000870BDE8F083000008B50121442001F0DE
:101E400097F80120ADF8000028208DF803006946BE
:101E50000148FFF785FB08BD0008014070B5114C33
:101E6000114E012508B1257001E0207828B101212B
:101E70003046FFF7F3FB012805D001213046FFF77C
:101E8000EDFB60B10CE00A2005F0BEF800202070E8
:101E900001213046FFF7E2FB012802D000E0257067
:101EA000002070BD800000200008014038B50121ED
:101EB000142001F05DF84020ADF8000010208DF8EE
:101EC000030003200D4C8DF8020069462046FFF701
:101ED00047FB40212046FFF7CAFB094D4FF4E07451
:101EE000ADF8004069462846FFF73AFB21462846F0
:101EF000FFF7BDFB052001F09BF838BD000801404D
:101F00000010014070B506460D4600247E2003F007
:101F1000DDFD04E0305D03F0D9FD641CE4B2AC42A9
:101F2000F8D3BDE87040EF2003F0D0BD2DE9F843B1
:101F30000024194F06460A254FF00908B4FBF5F1B5
:101F4000B4FBF5F036F81130B4FBF5F101EB81028A
:101F5000B4FBF5F106EB400001EB810140880090F5
:101F600008EB42024900204605F086FD27F81400E0
:101F7000B4FBF5F005FB104010B908A0FEF7ACF972
:101F800037F8141006A0FEF7A7F9641CE4B2502C31
:101F9000D4D3BDE8F8830000040100200D0A00003E
:101FA00025642000FEE7000010B5002305E000BF17
:101FB00011F8014B00F8014B5B1C9342F8D310BDA4
:101FC0007047000070B50F23C47801780122F4B186
:101FD000144C2468457804F4E064C4F5E064240AF1
:101FE000C4F10406E3408478B5401C402C4301F161
:101FF000E021230181F80034007800F01F018A40BD
:102000004009800000F1E020C0F8002170BD01F01F
:102010001F0082404809800000F1E020C0F88021C4
:1020200070BD00000CED00E0024908430249086061
:10203000704700000000FA050CED00E070B586B0B6
:1020400000F088F8354D00242C63AC70EC702C72D5
:10205000EC71EC60EC61AC616C616C70AC71204651
:1020600005F134010C54401CC0B20828FAD32C717D
:102070006C71AC622C6200F0D3FDC821284800F0DE
:1020800007FE274A0020411C00EB80008BB202EBC8
:10209000800003EB830302EB83030470436088B288
:1020A0000928F0D300EB800002EB8000047044604C
:1020B0002A6100F091FD00F0F5FD80261948CDE978
:1020C00001064FF6FF70009003253F23164A0021BA
:1020D0001648CDE9034500F0D1F905AA14A13F2027
:1020E00000F01CFA0E480F4AC830CDE901064FF641
:1020F000FE7000903E23121F00211148CDE90345D8
:1021000000F0BCF905AA0FA13E2000F007FA00F08C
:10211000FBFB06B0BDE8704000F022B8A80000202C
:1021200008210020D0230020CC250020392E0008D3
:1021300075432F4F532D49492049646C65000000B9
:10214000552E000875432F4F532D49492053746174
:102150007400000001490020088070470001002041
:10216000704700000449C879012804D18878FF2805
:1021700001D2401C88707047A800002070B5144C34
:10218000E079012822D1FEF74BF80546A07820B16E
:10219000401E10F0FF00A07013D1E07888B900F065
:1021A000C5FD0C48617950F82100A0622279914266
:1021B00007D0816B491C8163E068401CE060FEF73A
:1021C0004EF82846BDE87040FEF72EB870BD0000FE
:1021D000A8000020D025002010B5094CE079012886
:1021E0000CD1FEF71DF8A17821B9E178FF2901D2C1
:1021F000491CE170BDE81040FEF716B810BD0000A4
:10220000A800002010B50D4CE079012814D1FEF78C
:1022100007F8E17831B1491E11F0FF01E17001D1F9
:10222000A17819B1BDE81040FDF7FEBFFDF7FCFF36
:10223000BDE8104000F056BD10BD0000A800002011
:1022400070B505460C48007808B1002070BDFDF758
:10225000E7FF0A490C680CB162680A60FDF7E4FF09
:102260003CB103202070258100206060204600F0F2
:10227000A9FC204670BD0000AA000020B800002084
:102280002DE9F0470646007889461446032801D018
:10229000012008E02548007808B1022003E0244826
:1022A000007818B10D201070BDE8F087FDF7B8FF79
:1022B00007463089002530B1401E30813846FDF791
:1022C000B3FF2570F0E7DFF86C80D8F8000010F855
:1022D000301F41F001010170457040F8049C304608
:1022E00000F04CFC3846FDF79FFF00F0FBFCFDF7CB
:1022F00097FF0746D8F8000090F8311031B1022955
:1023000006D0314600F02AFC0A2002E0257001E0E8
:102310000E202070D8F8000080F8305080F831503E
:10232000C5613846BDE8F047FDF77EBFAA00002032
:10233000AB000020C800002070B5044600780328D8
:1023400001D0012070BDFDF76BFF0546A07A58B1A2
:10235000002301221946204600F0CEFB2846FDF757
:1023600063FF00F0BFFC09E020894FF6FF7188424F
:1023700006D2401C20812846FDF756FF002070BD84
:102380002846FDF751FF332070BD000010B5094C01
:10239000E07900280CD100F0C9FC60790649207171
:1023A00051F82000A0622062BDE81040FDF73FBF59
:1023B00010BD0000A8000020D025002010B502208C
:1023C00000F098F9FDF72CFF084C0021E161FDF7C2
:1023D0002BFF142000F08EF9FDF722FFE169616107
:1023E00001216170BDE81040FDF71EBFA80000206C
:1023F000704700002DE9FE431C4615460F468046F7
:10240000FDF70EFF1A49097821B1FDF70DFF3C20B9
:10241000BDE8FE83174E56F8241019B1FDF704FFEE
:102420002820F5E7012146F82410FDF7FDFE0023E2
:102430002A463946404600F0D9F800250146009565
:1024400001952B462A462046029500F07FFC0700A6
:1024500007D0FDF7E5FE46F82450FDF7E5FE3846C7
:10246000D6E7054800780128F9D100F03BFCF6E7F3
:10247000AA000020D0250020AF0000202DE9FF4F4A
:1024800083B01C46DDE91386DDE9119792468B4641
:10249000FDF7C6FE1D49097829B1FDF7C5FE3C20B0
:1024A00007B0BDE8F08F1A4D55F8241019B1FDF7AB
:1024B000BBFE2820F4E7012145F82410FDF7B4FE07
:1024C00032463946484600F00DFD334652465946DD
:1024D000039800F08BF80097CDE9018601464A4643
:1024E0002046109B00F032FC060008D0FDF798FE55
:1024F000002145F82410FDF797FE3046D0E7054847
:1025000000780128F9D100F0EDFBF6E7AA000020E1
:10251000D0250020AF0000207047704770B50546F9
:1025200011480E461446007810B11220107070BD8C
:10253000FDF776FE0146FF2D03D10C48006890F8A8
:1025400032500B4850F82500432540B1012806D0F1
:10255000C6640846FDF768FE0020207070BD08467E
:10256000FDF762FE257070BDAA000020C8000020A3
:10257000D0250020704700002DE9F04104460020DE
:1025800008600D464860FDF74BFE0146FF2C03D165
:102590001448006890F83240134850F8240058B1AD
:1025A000012809D0027CD2070CD0D0E902760024A1
:1025B0000846FDF739FE0BE00846FDF735FE4320DF
:1025C000BDE8F0810846FDF72FFE4520F8E7641CC2
:1025D00001CF0028FBD0A0002860301B800068607D
:1025E0000020EDE7C8000020D02500204FF08073C8
:1025F0001360131F1860A2F108006FF0010303605D
:10260000001F4FF012330360001F4FF003330360CD
:10261000001F4FF002330360001F5B100360001FB8
:102620000160001F4FF011310160001F19010160AE
:10263000001F4FF009310160001FD9000160001F29
:102640004FF007310160001F4FF006310160001F9D
:102650004FF005310160980042F83C0D104670477C
:1026600070B50446FDF7DCFD03461D48FF2C0068ED
:1026700005D090F83200A04204D1012503E090F883
:102680003240FAE70025174850F8240058B10128D5
:102690000ED090F83420144C90F83560A15CB14312
:1026A000A1540AD00FE01846FDF7BEFD482070BDCA
:1026B0001846FDF7B9FD432070BD0C4990F836402F
:1026C0000A78A2430A7010F8301F41F00801017027
:1026D0001846FDF7A9FD0DB100F004FB002070BD08
:1026E000C8000020D0250020DC000020AE00002023
:1026F0007047000070B5044613480078002821D1C7
:102700001248007800281DD1002C1BD0FDF788FD51
:1027100003460F480F4D016891F8340091F8356079
:102720002A5CB2432A5405D10B4891F836500278FE
:10273000AA4302701846CC62FDF776FDBDE87040F2
:1027400000F0D0BA70BD0000AA000020AB0000204D
:10275000C8000020DC000020AE0000202DE9F04180
:1027600000F04CF8FDF75CFD234D296B491C2963F3
:10277000FDF75AFDE87901283BD1687A0126002748
:1027800020B1012835D0022802D06F72EC6A2CE00B
:102790006E72FBE7FDF744FDE16A19B3491EE16281
:1027A00020D194F8301011F0370F06D001F0C80195
:1027B00084F8301084F8316001E084F8317094F8C6
:1027C000301009070ED494F83610AA791143A97174
:1027D000094994F83420343194F835C08B5C43EACD
:1027E0000C038B546469FDF71FFD94F832003F28F9
:1027F000D0D1BDE8F0810000A80000200548018884
:10280000491C89B20180142903D30021018000F002
:1028100043B87047000100202DE9F05F81461A4857
:10282000DDF828B00C9E00781F4690468A4608B115
:102830008B2025E0FFF7D0FC144800250468E4B1A4
:10284000E16801601249E56025610888401C088044
:1028500010480188491E0180012084F82500C4E940
:10286000069A84F82480C4E9017B0B982062FFF764
:10287000C9FC35702046BDE8F09FFFF7C3FC8620F9
:1028800030700020F7E70000AA000020FC000020C4
:10289000EE000020EC00002001480068FFF74CBD6E
:1028A000F800002070B5054600780C46642801D079
:1028B000892003E01348007810B18B2008701FE0D6
:1028C000FFF78AFC95F82500B0B1002601280AD050
:1028D000022808D0032803D0FFF794FC8D200EE0D7
:1028E000284600F0E9F80021284600F083F8FFF7B9
:1028F00089FC2670012070BDFFF784FC87202070C2
:10290000002070BDAA00002030B587B04FF42071C0
:10291000294800F0BDF94021284800F0B9F900200D
:10292000254904466423421C00EB800001EBC000F3
:1029300095B205EB8505037001EBC50580F82540D0
:10294000C5601FA5056290B20F28ECD300EB800094
:1029500001EBC0001AA2037080F82540C460026237
:1029600018481A4A0460184804801020108018483B
:1029700001600120FFF764FC164908600020FFF7A2
:102980005FFC1549154A002308608021029103204D
:10299000CDE903404FF6FD70CDE9000202F5FE726D
:1029A00019460F48FFF76AFD05AA0EA10020FFF7A0
:1029B000B5FD07B030BD0000882B00200830002096
:1029C0003F000000F0000020EE000020EC0000209E
:1029D000FC000020F4000020F8000020082E002059
:1029E000412A000875432F4F532D494920546D72D9
:1029F00000000000032280F825200F4A01291268F8
:102A000014D0816991B111444161017D0B4A01F0FB
:102A1000070102EBC10100230A68086042B1C260ED
:102A200010618A88521C8A8003617047C169EAE795
:102A30000122C360F7E70000F0000020083000200A
:102A400008B5DFF86880DFF868901A4D6A46002103
:102A5000D8F80000FFF714FCFFF7BEFB2868401C05
:102A6000286000F00700022759F8304013E0606941
:102A70002968E66888420DD1204600F01DF894F8D8
:102A8000240002280CD084F82570626812B1204618
:102A9000A16890473446002CE9D1FFF7B3FBD5E796
:102AA00001212046FFF7A6FFEFE70000F800002015
:102AB00008300020F000002010B5017D0D4A01F023
:102AC000070102EBC10200231468C168844203D1EC
:102AD000116029B10B6103E00469E16001B10C618F
:102AE000012180F82510C36003619088401E90800A
:102AF00010BD000008300020F0B50E460146847A73
:102B000013480027045D0D19ED7A405D00EBC40009
:102B1000C5B2104850F82500C762066290F83060D0
:102B2000964380F8306080F8313032070BD40A4A7F
:102B300090F83630967933439371343290F835609B
:102B4000135D3343135500F009F82846F0BD00002B
:102B5000348D0008D0250020A800002010B590F882
:102B6000342090F835408B18DA7AA243DA7204D117
:102B70008A7A90F8360082438A7210BD30B51049C7
:102B800000F10B020B6A43F81C0F1C7E5B7EA55CF8
:102B90001D43A5540A6A837A92F836402343837210
:102BA00092F8340001F1340492F83550235CAB43C1
:102BB000235404D192F8362088799043887130BD2F
:102BC000A80000200022827211464318491CC9B295
:102BD000DA720829F9D3704710B550210D4800F07A
:102BE00057F800200B4A0346411C02EB00108CB240
:102BF00002EB04140370446007A4C46088B2042884
:102C0000F2D302EB001004A103704360C1600348DB
:102C1000026010BDC02A00203F000000E400002038
:102C200000B54FF47C71164800F032F84FF4807113
:102C3000144800F02DF8124A0020411C0B46C9B27E
:102C4000C0EBC00000EB4000C1EBC10102EB800013
:102C500001EB410102EB810141610BA1C164D8B2DA
:102C60000B28EAD3C0EBC00000EB400002EB800071
:102C700005A30021C364416104484262C16200BDF2
:102C8000D0260020D02500203F000000A800002012
:102C9000002203E0491E00F8012B89B20029F9D176
:102CA0007047000010B578210C48FFF7F1FF0B4A80
:102CB0000020411C8BB200EB400003EB430302EB0E
:102CC000C30342F8303088B20428F2D300EB40004E
:102CD000002142F830100248026010BD102B002085
:102CE000E800002070B5FDF79BFA0E4C0546A07871
:102CF00098B9E07888B900F019F80B49607951F873
:102D00002010A1622279904207D0886B401C886312
:102D1000E068401CE060FDF79BFA2846BDE8704083
:102D2000FDF782BAA8000020D02500200649054AF8
:102D300001F134038879105C1B5CD25C02EBC000AB
:102D400048717047348D0008A80000202DE9F05F1D
:102D50009846DDE90ABA91460D460746FDF760FA46
:102D6000324E746A002C5CD0616918347162FDF7D0
:102D70005BFA44F8185CA7760025257665766561D0
:102D800044F80CBC44E905A90C9824F8080C24F874
:102D9000068CE577FA08227707F00701012000FA90
:102DA00002F2E176A277884060776560E560A56011
:102DB0002562A56265621EA0E562C4E90C50002090
:102DC000B4F1180404EB8001401C0D6510F0FF0005
:102DD000F8D02046FFF70CFB2046FFF79DFBFDF7E0
:102DE0001FFA0146134840F82740F06AC4E9050578
:102DF00000B18461F46294F83600B2791043B07186
:102E00000A4814F8342F34306478835C23438354A5
:102E1000307A401C30720846FDF706FA0020BDE803
:102E2000F09FFDF701FA4220F9E70000A80000201A
:102E30003F000000D0250020054C00BFFDF7F0F951
:102E4000E169491CE161FDF7EFF9FFF766FBF5E782
:102E5000A8000020144C02E02820FFF74BFC60780B
:102E60000028F9D0642160690025B0FBF1F06061B1
:102E700018B92570FF20FFF7F3FBFDF7D1F9E169E1
:102E8000C4E90615FDF7D0F9D4E90510B0FBF1F05F
:102E9000C0F164002070FFF76DFB00F007F814200C
:102EA000FFF728FCE9E70000A80000207CB50C4DE6
:102EB000002469462046FFF75FFB58B955F8240007
:102EC00040B1012806D0D0E9021201EB8201416431
:102ED00001998164641CE4B23F2CEAD97CBD0000F6
:102EE000D0250020D30707D0920705D5002200295E
:102EF00002D004C0491EFAE77047000001460148AD
:102F000002F002BD000800400146014802F0FABC90
:102F1000000C0040034A516821F4404101435160D4
:102F20007047000000100240044A0029516901D096
:102F3000014300E0814351617047000000100240EE
:102F4000044A0029D16901D0014300E08143D161E5
:102F50007047000000100240044A0029116901D0A6
:102F6000014300E0814311617047000000100240FE
:102F7000044A0029916901D0014300E08143916135
:102F80007047000000100240044A0029D16801D0B7
:102F9000014300E08143D16070470000001002400F
:102FA00030B51F494A6812F00C031E4A03D0042BA7
:102FB00001D0082B21D002604A680F231A4C03EA83
:102FC0001212A35C0268DA4042604B68072505EAEA
:102FD0001323E35C22FA03F383604B6805EAD323EF
:102FE000E35CDA40C2604968032303EA9131231F9E
:102FF000595CB2FBF1F1016130BD4A684B6802F4E3
:1030000070124FF0020413F4803F04EB924202D09E
:103010004B689B0301D5054B00E0024B5A43CAE7BE
:103020000010024000127A009800002000093D00C4
:10303000064900F00102C1F8A021C0F34002C1F826
:103040009C21C0F38000C1F8980170470000224223
:1030500030B587B001210820FFF78AFF01218803DE
:10306000FFF76EFF4FF46044ADF8144018208DF860
:1030700017000320194D8DF8160005A92846FEF704
:103080006FFA21462846FEF7F2FA0020ADF800005C
:103090004FF48271ADF80210ADF804000221ADF8D2
:1030A00006100121ADF808104902ADF80A103821C8
:1030B000ADF80C10ADF80E000720094CADF810006B
:1030C0006946204600F059F80121204600F040F8FA
:1030D000FF2000F007F807B030BD0000000C0140F1
:1030E0000038004070B506460024114D03E0641C12
:1030F000E4B2C82C0FD80221284600F033F800288B
:10310000F5D03146284600F036F8002405E0641C6E
:10311000E4B2C82C01D9002070BD0121284600F07E
:1031200021F80028F3D0284600F023F8C0B270BD83
:103130000038004001460548028822F0380202802B
:1031400002880A430280012100F002B800380040E2
:103150000029018802D041F0400101E021F0400146
:10316000018070470246002012890A4200D00120E7
:103170007047808970478181704730B502884C88DC
:1031800002F441530A88CD8822438C882C43224381
:103190000C8922434C8922438C892243CC892243C7
:1031A0001A430280828B22F400628283098A0182A0
:1031B00030BD0EB50021019100910291AA218DF838
:1031C000001007218DF8011002218DF80210010A6C
:1031D0008DF803108DF80400B33108448DF8050014
:1031E00006216846FEF78EFE0EBD70472DE9FF5F93
:1031F000A2A2DFF890B2D2E90012CDE90212ABF13F
:103200001408A0F5845398F8052098F806100025B6
:103210009D4C40F249174FF4EE794FF4D27A40F2C8
:10322000DB16102B4CD2DFE803F09E9E9E9E9E9EE6
:103230009E9E9E9EC7E908244DFD012088F8060049
:1032400088F80550062200218E4802F0D5F80822A1
:103250008C494FF4B660FEF7DDFBCDE90097A1780D
:103260004FF48D73B4224FF41060491CFEF722FB1B
:10327000DEE0022088F80600824888F80550062221
:103280000021801D02F0B8F87E490822891D4FF404
:10329000B860FEF7BFFBCDE90097A1784FF48D73BE
:1032A000B4224FF41060FEF705FBCDE9006AA17867
:1032B0004FF4B973B5224FF41160491CFEF7FAFAC6
:1032C000BDE8FF9F88F8065088F80550CDE90097C3
:1032D000A1784FF48D73B4224FF41060FEF7EAFA30
:1032E000CDE9006AA1784FF4B973B5224FF41160AB
:1032F000FEF7E0FA032265A1624803F06DF90128A8
:10330000DED16048062262A1801D03F065F9012824
:10331000D6D120781A2101EBC000A07008225EA14E
:103320004FF4BA60FEF776FB08225BA14FF4BC6055
:10333000FEF770FB40F24B10CDE90060A17840F23F
:103340001513B3224FF41260FEF7B4FA40F2A9103D
:10335000CDE90060A1784FF4BA73B4224FF4136042
:10336000FEF7A8FA85E0B030C4B201290ED1032AD5
:10337000A6D20BF80240082242494FF4B660FEF78D
:1033800049FB98F80500401C88F8050098F80600ED
:10339000022895D198F80500062891D239490822CB
:1033A000891D0C544FF4B860FEF734FB98F8050003
:1033B000401C88F8050083E7324820231438407900
:1033C000401EC0B201290ED00229F4D1002AF2D049
:1033D0002C4988F80500891D08220B544FF4B86069
:1033E000FEF718FB6CE7002AE5D088F805000BF81B
:1033F0000030082223494FF4B660F1E701290DD1CE
:1034000088F8055088F80650CDE90097A1784FF468
:103410008D73B4224FF41060FEF74CFA404698F8D2
:10342000061000E00DE00229C5D1457188F806506C
:10343000CDE9006AA1784FF4B973B5224FF4116059
:103440003CE7104888F8055088F80650062202A983
:10345000801DFEF7A9FD062202A90A48FEF7A4FD79
:10346000207820B12078502101EB400000E00620B8
:10347000A070A078FEF773F922E70000202020203A
:103480002020000038000020440F0020303032009F
:103490003936333231350000202020202000000052
:1034A000B0F5885F03D0A0F5885110390CD10748DA
:1034B000017821B10178502202EB410100E00621A0
:1034C00081708078FEF74BB970470000440F0020F0
:1034D000A0F5885112390AD1054880F830100178DA
:1034E000502202EB410181708078FEF738B97047B5
:1034F000440F00202DE9FF5FFE4A0021FE4C917031
:103500001E25801E02F124014FF01D084FF485791D
:103510004FF4F97A4FF4ED774FF0670B4FF4C47620
:1035200009287DD2DFE800F0054DA5FEFDFCFB7CFF
:10353000FA00002008604860EE490870E070012041
:103540002071E178207903F0D2FD0820A070207866
:1035500018224FF49E716423584340F2C113633024
:10356000CDE90030CDE902122378642043430022E4
:1035700046214FF49050FEF744F94FF4CF7000907D
:103580005B234D2200214FF44470FDF7A5FE40F26D
:103590000A2000905F234E2200214FF44870FDF76F
:1035A0009BFE21784FF48070FEF728FA4FF4EB7100
:1035B000881DCDE90001A178D5235E224FF49850F3
:1035C00053E00020E07008604860CA49087002209B
:1035D0002071E178207903F08AFD0A20A07020781C
:1035E000642358436230CDF800A0CDF80C80CDE9BB
:1035F00001092378642043430022472141F210202F
:10360000FEF7FFF84FF4BB7000905F234D220021BE
:103610004FF44C70FDF760FE61234E22002100E064
:10362000A3E24FF450700097FDF756FE40F2671189
:1036300040F2D910CDE90001A178CC23592241F202
:103640001030FEF737F921784FF48070FEF7D6F985
:1036500040F26F214FF49C70CDE90001A1784FF446
:10366000137363224FF45470491CFEF723F9A078BA
:103670008BE10027E7709F480F604F6007700320C1
:103680002071E178207903F032FDA760E760A1683E
:10369000082300224FF4A060FEF784F9E1680823B4
:1036A00000224FF4A260FEF77DF90C20A07040F2DA
:1036B000292340F2562200214FF4E060FDF738FE46
:1036C00020786422504340F2BB125D30CDE90020E7
:1036D000CDE90295237864204343002248214FF42A
:1036E0009150FEF78EF82078BE224623584356307C
:1036F000CDE90060CDE902B220782222C0EBC00003
:1037000000EB800005EB400350214FF48950FEF799
:1037100078F840F2FD122E23207804E007E2B3E1AE
:1037200038E1AEE04BE03221484340F272213230C2
:1037300003920091CDE9010323783220434340F204
:10374000F512502141F23010FEF75BF820784FF46B
:103750000F722F213223584340F22E333230CDE9FD
:103760000030CDE9021223783220434340F2B122E7
:1037700050214FF48A50FEF744F840F2D3114FF431
:10378000EE70CDE90001A17840F239135F224FF4C9
:103790009950FEF78FF84FF40D7140F2AF10CDE95C
:1037A0000001A17840F2FB13B3224FF45C70FEF7E6
:1037B00081F821784FF48070FEF720F957E7002751
:1037C0004C480F604F600770E77084F82970042040
:1037D0002071E178207903F08AFC84F829704FF495
:1037E00016702082208A03F053FC0E20A0702078EF
:1037F00040F20B12642358434FF4E0736230CDE97A
:103800000030CDE902282378642043430022492177
:1038100041F23020FDF7F5FFBB21207868224623D6
:103820005843563000960391CDE9010220782222B8
:10383000C0EBC00000EB800005EB4003502141F2DB
:103840005010FDF7DEFF4FF40F714FF4EC70CDE92F
:103850000001A17840F25D13612241F23030FEF7A1
:1038600029F821784FF48070FEF7C8F840F2292338
:1038700040F2562200214FF4E260FDF759FD0E2080
:1038800083E000271B480F604F600770E77005203A
:103890002071E178207903F02AFCA7741020A07031
:1038A0002078642358436430CDF800A0CDF80C8014
:1038B000CDE901092178002201EBC10000EB0111E3
:1038C000022000EB81034A214FF49250FDF799FF4B
:1038D0002078A822462358435630CDE90060CDE930
:1038E00002B220782222C0EBC00000EB800005EB82
:1038F000400303E024000020440F002050214FF437
:103900008B50FDF77EFF207840F2CD116822C0EB8E
:1039100000108000563000960391CDE90102207816
:103920002222C0EB001005EB8003512141F2701000
:10393000FDF767FF40F2AF1140F2D710CDE900016B
:10394000A17840F21B1362224FF49A50FDF7B2FFA8
:1039500021784FF48070FEF751F840F2292340F2AD
:10396000562200214FF4E460FDF7E2FC40F23A21D8
:103970004FF4DE70CDE9000140F217235E221121E1
:103980004FF46C70FDF796FF102004B0BDE8F05FB7
:10399000FDF7E5BE002776480F604F600770E770BF
:1039A00006202071E178207903F0A1FBA760A168CF
:1039B000082300224FF4A860FDF7F4FF1220A07046
:1039C0002078642358436230CDF800A0CDF80C80F5
:1039D000CDE9010923786420434300224B2141F2C1
:1039E0005020FDF70EFF2078A8224623584356307A
:1039F000CDE90060CDE902B220782222C0EBC00000
:103A000000EB800005EB400350214FF48C50FDF794
:103A1000F8FE20784FF4EC7230233221484340F214
:103A20007221323003920091CDE9010323783220D4
:103A3000434340F2F512502141F29010FDF7E1FEB0
:103A400000970197A17800231A4641F25030FDF704
:103A500031FF40F2072140F2AD10CDE90001A1781D
:103A600040F2DB13B5224FF48460FDF723FF217889
:103A70004FF48070FDF7C2FF40F2292340F2562236
:103A800000214FF4E6604FE00020086048603849AC
:103A90000870E07007202071E178207903F027FB9F
:103AA0001420A0702078642358434FF4E0736230F0
:103AB000CDE90030CDE90298237864204343002209
:103AC0004C214FF40C70FDF79CFEC7212078682232
:103AD00046235843563000960391CDE901022078E1
:103AE0002222C0EBC00000EB800005EB4003502118
:103AF0004FF48D50FDF785FE40F23921CDE900717C
:103B0000A1784FF4B07362224FF49B50FDF7D2FEC0
:103B100021784FF48070FDF771FF40F2292340F2C5
:103B2000562200214FF4E860FDF702FC9FE540F2C9
:103B300057214FF46E70CDE9000140F225234FF478
:103B4000577216214FF48660FDF7B4FE084D688960
:103B5000FDF72EFE698940F20E20FDF74FFF207819
:103B6000162101EBC000A07081E5BDE8FF9F0000B9
:103B7000240000202DE9FC5FB64EB74C07464FF0FD
:103B800001093C281ED1307802281BD1E068C8B159
:103B9000B078B8B194F8280080B1002004F8280F5C
:103BA000217840F2292340F256224FF4E060FDF7DD
:103BB000BFFB14F82809012802D003E00120EDE73B
:103BC00084F82C9094F82800002874D1A14D0A2084
:103BD000243540F2D31A4FF4EE7B4FF00008362F15
:103BE0001CD010DC322F19D006DC1E2F7ED0302FD7
:103BF00014D0312F5FD111E0332F0FD0342F0DD0DF
:103C0000352F58D10AE0A7F13701092953D2DFE84F
:103C100001F0050505405352D052FC0031780129CE
:103C200049D1F178B9B9296801EB810207EB420269
:103C3000303A642A01D22A6009E0B1FBF0F200FBBD
:103C4000121000EB800007EB400030382860297824
:103C5000207903F04CFAF07801282CD1686800EB49
:103C6000800107EB41013039B1F57A7F01D26960FB
:103C7000C2E06421B0FBF1F16FF01802514300EB98
:103C8000810000EB800007EB40003038014668609F
:103C9000B2E0317801290ED1F17829B169680029A3
:103CA00009D0B1FBF0F1E2E72968002903D0B1FBAC
:103CB000F0F0286077E080E0286800287DD04FF49D
:103CC000C877502843D86868B84249D8B07880B1DE
:103CD0000020B070217800EB400001EB40014FF470
:103CE0008070FDF78BFE3078012800E03AE002D0CA
:103CF0002AE00120EDE702203070CDE900BAA1787A
:103D000040F239135F224FF49950FDF7D3FD4FF481
:103D10000D7140F2AF10CDE90001A17840F2FB1324
:103D2000B3224FF45C70FDF7C5FD2878E070686839
:103D3000A060E078A1684843E060E16808230022C1
:103D40004FF4A260FDF72EFE2868502805D9C5F86B
:103D500000804146207903F0CAF96868B84276D9F4
:103D6000414684E7B078002871D186F8038086F850
:103D70000090CDE900BAA17840F239135F224FF4E8
:103D80009950491CFDF796FD4FF40D7140F2AF10AC
:103D9000CDE90001A17840F2FB13B3224FF45C702F
:103DA000FDF788FD2878C1B22079BDE8FC5F03F0FB
:103DB0009EB9B07800284AD100E048E086F8039028
:103DC00086F80090CDE900BAA17840F239135F225D
:103DD0004FF49950FDF76EFD4FF40D7140F2AF10A6
:103DE000CDE90001A17840F2FB13B3224FF45C70DF
:103DF000491CFDF75FFD696802B00823BDE8F05F6C
:103E000000224FF4A060FDF7CDBD207820B12078CE
:103E1000502101EB400000E00620A07086F80380EE
:103E2000454684F80480A078FDF799FC0B48C0F85B
:103E3000B051C0F8A891C0F8AC910948C0F8889179
:103E40000848C0F88C91C0F89091C0F89491BDE8F2
:103E5000FC9F000024000020440F002000002242AC
:103E600000802242008021422DE9FC5F0546BC48CB
:103E700090F828000127BB4CDFF8ECB2DFF8EC9299
:103E80000026002843D1B64890F82B1001293ED0D7
:103E9000DFF8DCA2A5F11E0CAAF12402DAF800106A
:103EA000137892784FF00A0EBCF1120F2FD2DFE890
:103EB0000CF0669C09090909090909090909222F59
:103EC0009C9C9C7D012B22D101EB810305EB4303DC
:103ED000203B5246642B01D2136009E0B1FBFEFC8B
:103EE0000EFB1C1101EB810105EB41012039116032
:103EF0009AF8001007E0012B77D1002975D0B1FBAB
:103F0000FEF1CAF80010C9B2007903F0F0F86CE0D5
:103F100000296AD0502903D9954A31461660F3E743
:103F2000934924398AB100228A70804600788A46F3
:103F300002EB420100EB41014FF48070FDF75EFDA2
:103F40009AF80000012802D04FE00122ECE78848EF
:103F5000017888F803108AF8027002228AF800209B
:103F600040F2671240F2D911CDE9001298F8021020
:103F7000CC23592241F21030FDF79CFC35E07C49FE
:103F8000243992BB0F7040F2671240F2D911CDE98B
:103F9000001281788046CC23592241F21030491C0E
:103FA000FDF788FC9AF800104046ADE790F828101D
:103FB000D9B9C670017821B10178502202EB4101D4
:103FC00000E00621817006718078FDF7C8FBC4F817
:103FD000A871C4F8AC71C4F8B071CBF88871C9F895
:103FE0009071C9F89471C9F88C616148243881785E
:103FF000012922D14FF4ED712C2D20D02D2D1CD173
:10400000574D95F82800012817D02A6A594B4FF4CC
:1040100050709A4295F82B207EDDCAB35FF0000203
:1040200085F82B2095F82B209AB300915F234E2220
:104030000121FDF751F985F82C70BDE8FC9F484D32
:1040400095F82B20012AF8D000780228F5D12B6AA8
:10405000494ADFF828814FF44C70934239DA95F8D9
:104060002810B9B15FF0000185F8281095F82820D4
:104070004FF4BB71002A4FF05F034FF04D020091E7
:104080000AD00121FDF728F9032085F82C00D4E798
:1040900047E04CE00121E7E70021FDF71DF9C4F8F6
:1040A000A871CBF88871C9F88C71C9F89071C9F8FA
:1040B0009471C4F8AC61C4F8B0610021404601F0CD
:1040C00084FB0020FEF71AFFBDE8FC5F0520FEF729
:1040D000AFBF2B6A9342B0DD95F82820012A01D1A9
:1040E00085F8286000915F234D220021FDF7F4F848
:1040F000C4F8A871CBF88871C9F88C71C9F89071AF
:10410000C9F89471C4F8AC61C4F8B06100214046AC
:1041100001F05BFB002000E005E0BDE8FC5FFEF77E
:10412000EDBE01227CE7012A01D185F82B600091C8
:104130005F234E220021FDF7CFF8C4F8A871CBF819
:104140008871C9F88C71C9F89071C9F89471C4F874
:10415000AC61C4F8B061BDE8FC5F0020FEF7D4BEDE
:10416000440F0020000022420080224200802142B1
:1041700048000020000034420000024300080040D4
:104180002DE9FC5F0127714DDFF8C48106469E28AA
:104190001DD1287802281AD1A878C0B198F8280033
:1041A00088B1002088F8280098F8281040F22923C8
:1041B00040F256224FF4E860FDF7BAF898F828006C
:1041C000012802D003E00120ECE788F82C7098F871
:1041D0002800002875D15D4C0A20243440F2392A89
:1041E0004FF4ED7B962E1DD010DC922E1AD006DCFB
:1041F0001E2E6AD0902E15D0912E62D112E0932EF1
:1042000010D0942E0ED0952E5BD10BE0A6F1970224
:104210000021092A55D2DFE802F00505051E2954C0
:1042200054546900297801294BD1226802EB82019C
:1042300006EB41019039642901D2216009E0B2FB0B
:10424000F0F100FB112000EB800006EB40009038FD
:104250002060207808E02978012932D121680029DE
:104260002FD0B1FBF0F02060C1B203E020685028ED
:1042700006D9216098F80400BDE8FC5F02F037BF62
:10428000A87800B30020A87098F8001000EB400058
:1042900001EB40014FF48070FDF7B0FB2878012856
:1042A0000FD1CDE900BA98F802104FF4B073622232
:1042B0004FF49B50FDF7FEFA207888F803000220A7
:1042C0002870BDE8FC9F0120DDE7A8780128F8D020
:1042D0002F70CDE900BA98F802104FF4B073622243
:1042E0004FF49B50491CFDF7E5FAB2E798F800003F
:1042F00028B198F80000502202EB400000E00620B0
:1043000088F80200894688F8041098F80200FDF742
:1043100026FACDE900BA98F802104FF4B073622281
:104320004FF49B50FDF7C6FA0A48C0F8A871C0F8D0
:10433000AC710949C1F888710849C1F88C71C1F89C
:104340009071C1F89471C0F8B091BAE724000020D0
:10435000440F0020000022420080224200802142BF
:10436000A0F5805010B51849083807282BD2DFE88F
:1043700000F00406080A0C0E1400002008E00120DA
:1043800006E0022004E0032002E0042000E0052013
:104390004870BDE81040FCF70BBF0C4C487820700B
:1043A000012221460820FDF72DF8207820B1207841
:1043B000502101EB400000E00620A070A078BDE88D
:1043C0001040FDF7CCB910BD24000020440F0020A0
:1043D0002DE9FC5FDFF8B092064699F82800012726
:1043E000AA4DDFF8ACB20024002841D199F82B1077
:1043F000484600293CD15A460BF1240A1378A6F10D
:10440000100C9278DAF800104FF00A0EBCF1100F81
:104410002ED2DFE80CF00808080808080808080889
:10442000212EAAAA6378012B22D101EB810306EB8E
:104430004303103B5246642B01D2136009E0B1FBE9
:10444000FEFC0EFB1C1101EB810106EB4101103952
:1044500011609AF8001007E0012B09D1002907D05C
:10446000B1FBFEF1CAF80010C9B2007902F03FFEBC
:104470007BE0002979D0502904D9854A214624328D
:104480001460F2E792B100228BF802200078DA463D
:10449000C84602EB420100EB41014FF48070FDF78A
:1044A000ADFA9AF80000012802D05EE00122EBE7A5
:1044B00077482430017888F803104FF4EB72911D8F
:1044C000CDE9001298F80210D5235E224FF49850DF
:1044D000FDF7F0F902218AF8001046E0F2BB8BF8F4
:1044E0000070C9B2C846007902F001FE4FF4EB71CA
:1044F000881DCDE9000198F80210D5235E224FF403
:104500009850491C2FE080F8284080F82B40C47058
:10451000017821B10178502202EB410100E006212F
:104520008170C84604718078FDF719F95948C0F8C0
:104530008C41C5F8A871C5F8AC71C5F8B071564981
:10454000C1F88871C0F89071C0F894714FF4EB71A4
:10455000881DCDE9000198F8021000E005E0D523A0
:104560005E224FF49850FDF7A5F99BF8021001293F
:1045700021D11C2E21D01D2E1DD199F828004E4688
:10458000002818D1326A454B40F20A219A4296F827
:104590002B204FF4487071DD7AB3002286F82B206F
:1045A00096F82B2052B300915F234E220121FCF795
:1045B00093FE86F82C70BDE8FC9F99F82B104E46B0
:1045C0000029F8D19BF800000228F4D1326A344B5C
:1045D000DFF8D0809A4296F828204FF4CF714FF43C
:1045E000447016DA3AB1002286F8282096F828207E
:1045F000012A04D011E00122F6E730E031E0009119
:104600005B234D220121FCF767FE032086F82C0076
:10461000D1E7012A01D186F8284000915B234D2281
:104620000021FCF759FE0020FEF76EFCC5F8A871CA
:104630001948C0F888711748C0F88C71C0F890719B
:10464000C0F89471C5F8AC41C5F8B04100214046AE
:1046500001F0BBF8BDE8FC5F0020FEF74FBC012273
:104660009CE700915F234E220021FCF735FE0020DD
:10467000FEF74AFCC5F8AC419DE7FFE7012AF0D1FF
:1046800086F82B40EDE70000440F00200000224296
:104690002400002000802142008022420000AA4223
:1046A00000000243000800402DE9FC5F7A4E7B4C7D
:1046B00080464FF001094E2826D13078022823D1B8
:1046C000B07808B394F82800D0B1002084F828000E
:1046D00094F8280008B184F82C9014F8281F40F2B0
:1046E000292340F256224FF4E260FCF721FE14F831
:1046F000010F401C207014F82909032802D003E0A0
:104700000120E3E784F8299094F8280000287AD162
:10471000614D0A20243541464FF40F774FF4EC7B6E
:10472000B8F1460F20D012DC42291DD007DC1E292B
:104730006DD0402918D0B8F1410F64D114E043295D
:1047400012D0442910D0B8F1450F5CD10CE0A8F18B
:1047500047014FF0000A092955D2DFE801F00505AD
:10476000051E295454546D00317801294BD1296814
:1047700001EB810208EB4202403A642A01D22A602E
:1047800009E0B1FBF0F200FB121000EB800008EB37
:10479000400040382860287808E03178012932D17B
:1047A000296800292FD0B1FBF0F02860C1B207E0E2
:1047B0002868002827D0502807D95146C5F800A0FE
:1047C0002079BDE8FC5F02F092BCB078E8B100202F
:1047D000B070217800EB400001EB40014FF4807095
:1047E000FDF70CF9307801280DD12878E070CDE97B
:1047F00000B7A17840F25D13612241F23030FDF73D
:1048000059F802203070BDE8FC9F0120E0E7B07845
:104810000128F8D086F800902978207902F067FC0A
:10482000CDE900B7A17840F25D13612241F230304A
:10483000491CFDF73FF8E6E794F828000028E2D18C
:10484000207820B12078502101EB400000E00620C4
:10485000A07084F804A084F829A0A078FCF77FFF5A
:10486000CDE900B7A17840F25D13612241F230300A
:10487000FDF720F80A48C0F88CA10A49C1F8A891B0
:10488000C1F8AC91C1F8B0910749C1F88891C0F85E
:104890009091C0F89491B6E724000020440F0020C6
:1048A0000080214200002242008022422DE9FC5F6C
:1048B00007460026B44CB54DA0F580504FF0010AD4
:1048C0004FF00A089E382AD1E079032806D195F8DE
:1048D0002800A0B35FF0000085F8280095F828C0F4
:1048E000AB49AC48AC4BAD4ABCF1010F34D0C1F878
:1048F0008CA1C1F890A1C1F894A1C0F8A8A1C0F8FA
:10490000ACA1C0F8B0A1C3F888A10021104600F006
:104910005CFF0020FEF7F2FAA1A0FBF7DDFC95F8A2
:104920002800002878D1A7F5805190394FF4BA605B
:1049300040F2DB1940F2A91B10296DD200E009E01A
:10494000DFE801F08D8D8D8D8D8D8D8D8D8DC8DE87
:10495000466C6AFE0120BFE7C1F88C61C1F8906126
:10496000C1F89461C0F8A8A1C0F8ACA1C0F8B0A18A
:10497000C3F888A1208ADFF8149281B2E068A9F117
:10498000A00909EB4003012823F8021C04D090FB86
:10499000F8FC08FB1C0323B990FBF8F0834B23F8C9
:1049A00010100121104600F010FFE16809EB4100F2
:1049B00030F8020CFEF7A2FA7DA0FBF78DFCE1684F
:1049C00009EB410030F8022C7DA0FBF785FCA6E73F
:1049D000217A002920D184F807A031460823022239
:1049E000E660FCF7F5FF40F24B10CDE90090A978A6
:1049F0004C4640F21513B3224FF41260491CFCF7E9
:104A000059FFCDE9004BA9784FF4BA73B4224FF4A3
:104A1000136000BFFCF74EFFBDE8FC9F0220E07171
:104A20003146082304224FF4BC602661FCF7D0FF16
:104A300040F24B10CDE90090A9784C4640F2151396
:104A4000B3224FF41260FCF735FFCDE9004BA97893
:104A5000B4224FF4BA734FF41360491CDAE7E179DA
:104A600001291ED1E16801EB810107EB4101A1F5AC
:104A7000805190396429CFDAE160502900DDE66089
:104A800008230222E168FCF7A3FF5048E1680823ED
:104A900000EB4100042230F8021C4FF4BC60FCF72C
:104AA00097FFE0790228B7D1206900EB800007EB7F
:104AB0004001A1F5805142F2107090398142ABDA89
:104AC000216102B00823BDE8F05F04224FF4BC600E
:104AD000FCF77EBFE179012909D1E16800299BDD5E
:104AE00091FBF8F108230222E160FCF771FFE07905
:104AF000022891D1206900288EDD90FBF8F1DFE7D4
:104B0000E1790320012902D0022907D007E02F49CB
:104B1000E26801EB420131F8021C2161E071CDE94C
:104B2000009BA9784C464FF4BA73B5224FF413603A
:104B3000FCF7C0FE40F24910CDE90040A97800E042
:104B400005E040F21313B3224FF4126062E7E6600F
:104B50002661E671287820B12878502101EB4000C9
:104B600000E00620A8701148FDF7E0F912220F4975
:104B70001C20FCF747FC322002F046FAA878BDE87A
:104B8000FC5FFCF7ECBD000024000020440F002077
:104B900000802142000022420080224200080040A2
:104BA000B9D8B1D5B3F4D1F50D0A0000000000204A
:104BB000BFAAC6F4D6C6B3F4D1F50D0A00000000B2
:104BC000433D2564202050203D2564000401002041
:104BD0002DE9FC5FC44EC54C07464FF001087E2806
:104BE0001CD13078022819D1B078B8B194F82800D7
:104BF00080B1002004F8280F217840F2292340F2E8
:104C000056224FF4E660FCF793FB14F828090128BC
:104C100002D003E00120EDE784F82C8094F828000E
:104C2000002874D1B04D0021243540F2B1194FF461
:104C3000EC7A40F2072B762F1CD010DC722F19D0A3
:104C400006DC1E2F73D0702F14D0712F70D111E09D
:104C5000732F0FD0742F0DD0752FF7D10AE0A7F165
:104C60007700092864D2DFE800F0050505435B639F
:104C7000F963C00030780128E8D13079C0B92868DC
:104C800000EB800107EB41017039642901D22960F2
:104C90000AE00A21B0FBF1F201FB120000EB8000F8
:104CA00007EB4000703828602978207902F01FFA5D
:104CB00030790128CAD1686842F2107200EB800195
:104CC00007EB41017039914201D26960E7E04FF48E
:104CD0007A71B0FBF1F16FF07C02514300EBC1003F
:104CE00000EB800007EB4000703801466860D6E0BA
:104CF000307801281CD1307950B155F820100029A6
:104D000016D00A22B1FBF2F145F82010C7E0E6E028
:104D1000286800280CD00A21B0FBF1F028605FE081
:104D20002868002804D0502803D9296059E037E0CA
:104D30005AE0B07870B10020B070217800EB4000EC
:104D400001EB40014FF48070FCF758FE30780128E9
:104D500002D0AAE00120EFE7CDE900A9A1784FF445
:104D60008B73622241F25030FCF7A4FD40F2AD118A
:104D7000CDE9001BA17840F2DB13B5224FF484602B
:104D8000FCF798FD2878E0706868A060A1680823A7
:104D900000224FF4A860FCF705FE0220307084E08A
:104DA000B078012820D086F800803171CDE900A9C3
:104DB000A1784FF48B73622241F25030491CFCF70A
:104DC00079FD40F2AD11CDE9001BA17840F2DB1373
:104DD000B5224FF48460FCF76DFD307915F82000A2
:104DE000C1B2207902F083F95FE0207820B1207809
:104DF000502202EB400000E00620A070002020714D
:104E00003071A078FCF7ABFCCDE900A9A1784FF494
:104E10008B73622241F25030FCF74CFD40F2AD1131
:104E2000CDE9001BA17840F2DB13B5224FF484607A
:104E3000FCF740FD2E48C0F8A881C0F8AC81C0F84E
:104E4000B0812C48C0F888812B48C0F89081C0F808
:104E500094810021C0F88C1127E0FFE7B078012889
:104E600023D086F8048086F80080CDE900A9A178D7
:104E70004FF48B73622241F25030FCF71BFD40F27D
:104E8000AD11CDE9001BA17840F2DB13B5224FF440
:104E90008460491CFCF70EFD307955F8201008237A
:104EA00000224FF4A860FCF77DFDB7F59C5F09D0A8
:104EB0006FF49C50381807D0012812D002280ED168
:104EC000642002E00A2000E01420A060A16808230A
:104ED00000224FF4A860FCF765FDA0686860BDE89B
:104EE000FC9F3220F1E7000024000020440F002046
:104EF0000000224200802242008021427CB541F223
:104F00000202811A424C904261D038DC4149A0F53E
:104F100000700E386ED0A0F55060F2384FD00128E6
:104F200074D12078182101EBC000A07008223AA1AA
:104F30004FF4B660FCF76EFD082237A14FF4B8605D
:104F4000FCF768FD40F249114FF4EE70CDE9000125
:104F5000A1784FF48D73B4224FF41060FCF7AAFCD3
:104F60004FF4D27140F2DB10CDE90001A1784FF48B
:104F7000B973B5224FF41160FCF79CFC35E00129B0
:104F80002AD0022942D16078D8B3002060706578B9
:104F900040F257214FF46E74CDE9004140F22523D1
:104FA0004FF457724FF48660012D2DD05FF016013B
:104FB000FCF780FCBDE87C40C82002F025B82078D2
:104FC00048702078FCF7F4F80220A0700EE02078FA
:104FD0001C2101EBC00007E0207820B1207850218F
:104FE00001EB400000E00620A070A078BDE87C4006
:104FF000FCF7B5BB0A4800884881BDE87C40FCF757
:10500000D7BB0120C2E701E01721D1E77CBD00003A
:10501000440F002024000020202020202000000039
:10502000860000202DE9FC5F0127A34DA34C064616
:105030005E281DD1287802281AD1A878C0B194F82A
:105040002800C8B15FF0000004F8280F217840F272
:10505000292340F256224FF4E460FCF769F914F872
:10506000280928B194F82C00012801D084F82C706C
:1050700094F8280010B19CE00120E5E7DFF83882C1
:105080000A2040F2AF1A40F2D71B08F12408562E2E
:105090001DD010DC522E1AD006DC1E2E75D0502EDC
:1050A00015D0512E32D112E0532E10D0542E0ED0E6
:1050B000552E7ED10BE0A6F157020021092A78D2A5
:1050C000DFE802F00505052532777777A10029781A
:1050D00001296ED1D8F8002002EB820106EB4101D4
:1050E0005039642902D2C8F800100AE0B2FBF0F18E
:1050F00000FB112000EB800006EB40005038C8F8A0
:10510000000098F80010207901F0F1FF51E02978B3
:10511000012935D1D8F80010002931D0B1FBF0F0C9
:10512000C1B2C8F8000007E0D8F80000002827D076
:10513000502806D9C8F800102079BDE8FC5F01F0BE
:10514000D6BFA878F8B10020A870217800EB400005
:1051500001EB40014FF48070FCF750FC28780128E7
:105160000ED1CDE900BAA17840F21B1362224FF4B0
:105170009A50FCF79FFB98F80000E070022028701E
:10518000BDE8FC9F01E00120DEE7A878012810D0EF
:105190002F7098F80010207901F0A9FFCDE900BA2E
:1051A000A17840F21B1362224FF49A50491CFCF77D
:1051B00081FB40F2431540F23A2740F217284FF4A2
:1051C0006C79602E5AD0612EDAD1A07C0028D7D01D
:1051D000A07C401EA0740095A07C00230A221946E2
:1051E00002F04AFCC0F5DE7080B2CDE9000743460C
:1051F0005E2211214846FCF75DFBA17CBDE8FC5F07
:105200002FA0FBF769B894F828000028B8D12078BF
:1052100020B12078502202EB400000E00620A07070
:1052200089462171A078FCF79AFACDE900BAA178F5
:105230004FF49A5440F21B1362222046FCF73AFBCB
:105240004FF4D57140F24D10CDE900019E23352277
:1052500010212046FCF72EFB1E48C0F8A871C0F8AC
:10526000AC71C0F8B0711C48C0F888711B48C0F818
:105270009071C0F89471C0F88C9181E7A07C0A28E5
:10528000FBD2A07C401CA074A17C0DA0FBF724F8ED
:105290000095A07C00230A22194602F0EDFBC0F520
:1052A000DE7080B2CDE9000743465E2211214846F8
:1052B000FCF700FB64E7000024000020440F0020FE
:1052C000B8BAD1B9C9E8B6A8B4F3D0A1A3BA2564D5
:1052D0000D0A00000000224200802242008021428C
:1052E0001049A0F58052703A10D0A0F58052713A62
:1052F00014D1032081F82A000878062200EB400030
:1053000002EBC00088708878FCF729BA064A507A08
:10531000431C81F82A3010B10020507270470120E0
:10532000FBE70000440F00202400002001280CD1DE
:105330000648017821B10178502202EB410100E0DA
:10534000062181708078FCF70ABA7047440F00206C
:105350000CB50021264801910091026842F4803288
:1053600002604FF4A063026802F400320092019AD6
:10537000521C0192009A12B9019A9A42F3D1026822
:10538000920333D5012100911A490A6842F01002B4
:105390000A600A6822F003020A600A6842F0020208
:1053A0000A604168416041684160416841F4806140
:1053B0004160416821F47C114160416841F4E81189
:1053C0004160016841F08071016001688901FCD58C
:1053D000416821F003014160416841F002014160F0
:1053E0004168C1F381010229FAD10CBD00910CBDC5
:1053F0000010024000200240002302E0C1545B1C68
:10540000DBB29342FAD370474FF0E02104280869D9
:1054100003D020F004000861704740F00400FAE770
:10542000064810B50078012807D1FCF79BFEFDF770
:1054300095F9BDE81040FCF7A1BE10BDAF000020FB
:1054400038B501213C20FDF793FD01210846FDF709
:105450008FFD01211E48FCF7D5F84FF40044ADF84C
:10546000004010208DF8030001201A4D8DF8020035
:1054700069462846FCF774F821462846FCF7F7F8F9
:10548000154D4FF40E74ADF8004069462846FCF700
:1054900067F821462846FCF7EAF8104D4FF4E0542F
:1054A000ADF8004069462846FCF75AF821462846E0
:1054B000FCF7DDF804200A4CADF8000069462046F0
:1054C000FCF74EF804212046FCF7D1F838BD000067
:1054D0000002300000080140000C014000100140B3
:1054E000001401400F4810B5016841F0010101604E
:1054F00041680D4A1140416001680C4A1140016049
:10550000016821F480210160416821F4FE014160BD
:105510004FF41F018160FFF71BFF05494FF000604A
:10552000086010BD001002400000FFF8FFFFF6FE0B
:1055300008ED00E02DE9F041244D2879244C0026A7
:105540006178884203D028796070A6806680012146
:105550008F07384600F043F9002832D00121384641
:1055600000F030F928790321032813D195F82C0095
:1055700002280FD195F82D0001280BD0A088401CDF
:1055800080B2A0806080AA68824203D885F82C107F
:10559000A68066802879062813D195F8280001286E
:1055A00011D195F82D0001280DD0A088401C80B2A3
:1055B000A0806080AA68824203D885F82C10A6805B
:1055C0006680BDE8F081A680FBE70000440F002064
:1055D000140000207FB50C46054601210846FDF762
:1055E000AFFCADF80450ADF8004000244FF080450A
:1055F000ADF80640ADF802406946284600F086F94D
:1056000001221146284600F0F6F81C208DF80C0007
:105610008DF80D4003208DF80E0001208DF80F004D
:1056200003A8FCF7CFFC0121284600F0CEF87FBD8F
:1056300030B50C46054689B001210220FDF780FCFB
:1056400001210420FDF794FC8020ADF81C001820F7
:105650008DF81F0003208DF81E0007A91448FBF7E2
:105660007FFFADF804500020ADF80040ADF8060013
:105670001020104CADF802006946204600F046F9B3
:105680007020ADF80C000120ADF80E000220ADF83E
:10569000140003A9204600F0B7F80121204600F0CD
:1056A00094F80021204600F02DF909B030BD00002B
:1056B000000801400004004030B50C46054689B0A2
:1056C00001210420FDF73CFC01210820FDF750FCDE
:1056D0004FF48070ADF81C0018208DF81F000320D7
:1056E0008DF81E0007A91448FBF73AFFADF80450E7
:1056F0000020ADF80040ADF8060010200F4CADF8CA
:1057000002006946204600F001F97020ADF80C0057
:105710000120ADF80E000220ADF8140003A92046C8
:1057200000F0B2F80021204600F04FF8002120469A
:1057300000F0EAF809B030BD000C0140000800405C
:1057400030B50C46054689B001210820FDF7F8FB6D
:1057500001210420FDF70CFC0220ADF81C001820EC
:105760008DF81F0003208DF81E0007A91348FBF7D2
:10577000F7FEADF80040ADF804501020104D0024A5
:10578000ADF80200ADF806406946284600F0BEF8C4
:105790007020ADF80C000120ADF80E00ADF81440FB
:1057A00003A9284600F030F80121284600F00DF842
:1057B0000021284600F0A6F809B030BD00080140DD
:1057C000000C0040C943018270470029018802D0C3
:1057D00041F0010101E021F0010101807047024622
:1057E0000020138A92890B4202EA010202D0002AA9
:1057F00000D001207047002A828901D00A4300E0CE
:105800008A4382817047000070B5028C22F010023A
:105810000284028C8488038B0D8823F4E6464FF6BD
:10582000FF7303EA052535430E8922F0200203EABF
:10583000061616434A8803EA02123243104EB0425B
:1058400002D0104EB04215D122F080064A8924F4CD
:10585000406403EA0212324322F040068A8803EAD7
:10586000021232438E8903EA86062643CC8903EA74
:105870008404344384800583C9880187028470BD11
:10588000002C01400034014070B5028C22F480727B
:105890000284028C8488838B0D8823F073031D435C
:1058A00022F400730E894FF6FF7202EA06261E43A9
:1058B0004B8802EA03233343104EB04202D0104E0D
:1058C000B04215D123F400664B8924F4405402EA17
:1058D0000323334323F480668B8802EA0323334394
:1058E0008E8902EA06162643CC8902EA0414344360
:1058F00084808583C9888187038470BD002C014022
:1059000000340140018770478187704730B50288B5
:105910001B4B1C4C98420DD0A0420BD0B0F1804FD5
:1059200008D0194DA84205D0184DA84202D0184DF4
:10593000A84203D122F070054A882A43154DA84297
:1059400006D0154DA84203D022F44075CA882A43D8
:1059500002808A8882850A88028598420AD0A042FD
:1059600008D00E4A904205D00D4A904202D00D4A0E
:10597000904201D1097A01860121818230BD000067
:10598000002C0140003401400004004000080040A9
:10599000000C004000100040001400400040014096
:1059A000004401400048014070B5FCF7DBFB164C99
:1059B00040F22551204600F0CAF9E0B1204600F03F
:1059C00053FAC2B2114801880B0414D44C044FF0AE
:1059D000000304D50A2A0DD141F4004111E00D2A3B
:1059E0000DD0C1F30D040A4D491C89B22A5501801E
:1059F000C72900D90380BDE87040FCF7BFBB41F464
:105A000080410180F7E70000003801408E0000204F
:105A100040200020F0B52B4E054687B0304600F000
:105A200055F901210420FDF7A3FA01214804FDF7EF
:105A300087FA0420ADF8100018208DF81300224FCB
:105A400001248DF8124004A93846FBF789FD08208F
:105A5000ADF8100048208DF813008DF8124004A90D
:105A60003846FBF77DFD26208DF814008DF8174091
:105A700000248DF8154005208DF8160005A8FCF7C8
:105A8000A1FA0C20ADF80A00ADF806400095ADF87B
:105A90000840ADF80440ADF80C406946304600F0CF
:105AA0008DF9012240F22551304600F06FF90121B5
:105AB000304600F000F94021304600F0F3F807B01E
:105AC000F0BD0000004400400008014070B5094CE2
:105AD00005468021204600F033F90128F9D12946F6
